:020000021000EC
:1090000000600020A59301005D9301005F930100C3
:10901000619301006393010065930100000000006B
:109020000000000000000000000000006793010045
:1090300069930100000000006B9301006D93010033
:1090400059B601006F930100ADBA01006F930100A2
:109050006F9301000000000061B901006F930100EF
:109060006F9301006F9301006F9301006F930100F4
:109070006F9301006F9301006F9301006F930100E4
:109080006F93010009A701006F9301006F93010026
:109090006F9301003DD601004DD901006F9301008F
:1090A0006F9301006F9301000000000000000000BA
:1090B0006F9301006F9301000000000000000000AA
:1090C00000000000000000000000000000000000A0
:1090D0000000000000000000000000000000000090
:1090E0000000000000000000000000000000000080
:1090F0000000000000000000000000000000000070
:10910000000000000000000000000000000000005F
:10911000000000000000000000000000000000004F
:10912000000000000000000000000000000000003F
:10913000000000000000000000000000000000002F
:10914000000000000000000000000000000000001F
:10915000000000000000000000000000000000000F
:1091600000000000000000000000000000000000FF
:1091700000000000000000000000000000000000EF
:1091800000000000000000000000000000000000DF
:1091900000000000000000000000000000000000CF
:1091A00000000000000000000000000000000000BF
:1091B00000000000000000000000000000000000AF
:1091C000000000000000000000000000000000009F
:1091D000000000000000000000000000000000008F
:1091E000000000000000000000000000000000007F
:1091F000000000000000000000000000000000006F
:10920000354936480A1A02D0072291438D4634491F
:1092100034480A1A06D00722914381F309880222B2
:1092200082F3148830483149314A00F044F831481B
:109230003149324A00F03FF831483249324A00F0B1
:109240003AF832483249334A00F035F83248334967
:10925000334A00F030F833483349344A00F02BF8F1
:1092600033483449344A00F026F83448344900225F
:1092700000F02CF833483449002200F027F8334836
:109280003349091A082902DB002202604160314A91
:1092900090471F481F49884205D00268043003B434
:1092A000904703BCF7E700208646EC4600200021EB
:1092B000294A9047FEE7884207D0521A05D0037822
:1092C00001300B700131013AF9D17047884202D068
:1092D00002700130FAE7704700600020005800205B
:1092E000006000200060002014EC0100E01A002063
:1092F0002C1B0020EC930100EC930100BEDD01006B
:1093000014EC0100E01A0020E01A0020ACDE01009D
:10931000ACDE0100ACDE0100ACDE0100ACDE010021
:10932000ACDE0100ACDE0100ACDE010012EC01009D
:1093300060EC01002C1B00202C1B00202C1B0020AB
:109340003D24002040240020402400204024002010
:10935000402C0020BB9301003DC60100FEE7FEE764
:10936000FEE7FEE7FEE7FEE7FEE7FEE7FEE7FEE7D5
:1093700009480068094909680A280AD1002908D162
:10938000074802686FF070031A404FF040031A4319
:10939000026000F009B80000300100103401001034
:1093A000E40E0040FFF7E4BF0B484FF0070188438D
:1093B00085460A488047FFF723BF094809490A4AFA
:1093C000884207D0521A05D0037801300B70013162
:1093D000013AF9D1704700000060002065B001003B
:0C93E000ACDE0100E01A0020E01A0020C2
:1093EC00F0B595B01D46164608460C4601F034FD06
:1093FC001A9B0D93CDE9086500252B46082205A97B
:10940C0020460A958DF82C500C9501F041FD079BD8
:10941C000293069B03939DF814308DF8115003F0C2
:10942C000302012A1DD1BDF81420059DC3F3C2030C
:10943C00C2F383168DF81030B20008230EA9204613
:10944C0001F026FDC5F3952508AB0093324602AB1F
:10945C000EA9284600F0A2FB204601F001FD15B034
:10946C00F0BD022AF8D1BDF81650C3F3C203C5F300
:10947C0089158DF810300827082D2E4628BF082690
:10948C003B4632460EA9204601F002FDAD1B08AB4F
:10949C0002AA31460EA8374400F0E4FB002DEBD1B4
:1094AC00DAE70000014B01221A7070476D1B002097
:1094BC007047000070B50E4D06460FCD88B06C4657
:1094CC000FC495E80F00002E84E80F00094A0A48E3
:1094DC004FF0060308BF00226946009302F03EF8E5
:1094EC0008B100F0B7FD054B1E7008B070BD00BF91
:1094FC00ACDE0100B1940100E01A00202C1B00200E
:10950C0007B5044B0093044A4023FFF769FF03B0EF
:10951C005DF804FB299501002D1B002038B50D4882
:10952C000D4C0E4D002323700378EB5CD2B263B16B
:10953C00043002F043FF08B100F08CFD084B1A78A0
:10954C0012B12378002BFBD038BD0C3002F0E4FCB8
:10955C00F1E700BFE01A00206D1B0020082200205C
:10956C002C1B002008B50848084A0378D35C3BB193
:10957C00043002F087FEBDE808400020FFF79ABFD8
:10958C000C3002F053FCF6E7E01A00200822002011
:10959C000120FFF78FBF000008B5FFF7F9FF044863
:1095AC00042100F06BFA034B01225A7108BD00BF75
:1095BC009CDE0100F41A00200378024613F004002C
:1095CC0006D003F00300012803D0022809D00120A3
:1095DC0070470B6812880233C2F3831213440B607A
:1095EC0070470B685288023303EB92130B60EEE763
:1095FC002DE9F04FDFF81CA187B00F46002304467D
:10960C00861C0DF1070015468DF8073000F00AFF97
:10961C00DAF804203A60DAF8083003F580739B1A04
:10962C000AF21C470AF583690AF21448B3421AD3AA
:10963C000020002D69D004F00F039B0143F00503BB
:10964C0063F30F00DAF80430DAB2033233444AF829
:10965C0022009DF80700CAF8043000F007FF012033
:10966C0007B0BDE8F08F0121384601F024F94846D7
:10967C0001F039F9404601F036F9DAF808000290A9
:10968C00C0B203300AEB800002A9FFF795FF029BE2
:10969C0030BBDAB20AEB8202D16803919A1C013317
:1096AC00DBB20AEB83030292D3F80CB001F0030394
:1096BC00012B22D0022B15D08346404601F016F91F
:1096CC0010B1029BCAF808305946384601F0F3F83D
:1096DC00DAF80830DAF8042003F580739B1AA5E752
:1096EC00D8B2CEE7BDF80E30C3F3891303334FEA7B
:1096FC001B4B02EB93030293DFE7BDF80C30C3F373
:10970C0083134FEA1B4B1344F5E7A40544F0060002
:10971C0098E700BF401C0020064B074810B50022FC
:10972C001A7001F052FB044610B9044801F0DEFB3C
:10973C00204610BD401C002010DE010000DF01009F
:10974C0030B50A4C71B10A4A0A49121BD2080023DF
:10975C009A4201D1002030BD31F82350854202D00D
:10976C000133F5E7034654F83300F4E724DE010037
:10977C009CDE0100E01A0020094B013903EBC0000C
:10978C00032909D8DFE801F00A0204060420704717
:10979C00007970474079704700207047022070476D
:1097AC0024DE0100034BD3E90130C31A584258415F
:1097BC00704700BF401C00202DE9F04186B0FFF738
:1097CC00F1FF0546002840F0ED80774CC4F81804F2
:1097DC00BFF34F8FA3680293DBB2033304EB830018
:1097EC0002A9FFF7E9FE029B18B1D4F81824002A4D
:1097FC005AD0DAB2991C013304EB8202DBB204EBCF
:10980C008303D268DB68049302F00303022B0392F8
:10981C00029154D1BDF80E306448C3F38917502F10
:10982C003E4628BF502606F1080166F38F13C1F39C
:10983C000901ADF80E3001F0E0FA0546002800F001
:10984C009C8001F009FB0023082203A9284601F0A3
:10985C0015FB0299CB43DBB20133C9B20331B6EB32
:10986C00830F4FEA830204EB810125D95FFA82F85A
:10987C000823A6EB0806284601F000FBF6B208F117
:10988C0008034B4903F0FC033246284601F0F6FA74
:10989C00029B033703EB97070297D4F81834002B7D
:1098AC0043D1D4F8106453E062689A4294D8A26011
:1098BC00284606B0BDE8F08108233246E5E7012BC7
:1098CC005BD1BDF80C303948C3F38311062928BF8E
:1098DC00062161F38913023101F00F018900ADF803
:1098EC000C3001F08AFA0546002846D001F0B4FA93
:1098FC000023082203A9284601F0C0FA0026BDF86F
:10990C000C20C2F38312B300964203F10803C4D2B5
:10991C0002994A1CC9B20331029204EB8101042260
:10992C00284601F0ABFA0136E9E7284601F098FA2F
:10993C00FFF738FF80F00105EDB2B9E7F3685B790A
:10994C0023B1336829461B6830469847F3681E6874
:10995C00002EF3D1284601F083FA0DF107008DF8A3
:10996C00076000F05FFDD4F818340BB9029BA360BC
:10997C009DF8070000F07AFDDAE7D4F8104454B9EA
:10998C000C4B0D480D49C01AC008000440F00200F1
:10999C0000F05CF8CCE7236820469B689847E368A6
:1099AC001C68ECE7002583E7401C002010DE01005A
:1099BC004C1C002024DE01004CDE0100E9DE01001D
:1099CC002DE9F34704460E46924601A9012218469A
:1099DC009946FFF70DFE1B4F10B3019D4FF0000889
:1099EC00AA1CC84508EB020123D11748002100F03E
:1099FC0033FF80F31000000440EA1440E4006B1CB9
:109A0C0004F03804DBB2EDB244F0010407EB83033D
:109A1C00033544EA881444EA8624D86047F8254084
:109A2C003B781BB1FFF7C8FE0028FBD102B0BDE8A4
:109A3C00F087C9B207EB81015AF82830CB6008F1E6
:109A4C000108CEE7401C00205C20002000231A46B1
:109A5C00FFF7B6BF07B50123019201AAFFF7B0FFCC
:109A6C0003B05DF804FB07B5CDE9002302236A4679
:109A7C00FFF7A6FF03B05DF804FB000030B50F4CF8
:109A8C00D4F8102403460020114631B9D968087166
:109A9C004AB9C4F810340A6030BDC9680D798542E2
:109AAC0006D00968F1E7D26814680C601360F3E71C
:109ABC0001300A28E8D14FF0FF30EDE7401C0020C0
:109ACC0038B5084B0125D3F810441D7004B938BDC6
:109ADC00E3685D71236820465B689847E3681C68FF
:109AEC00F4E700BF401C0020C38873B504460D4644
:109AFC0033B1144A00921449144A284600F059FF15
:109B0C00217A05291CD0637A4BB1A088FFF734FE6B
:109B1C000F4B104953F82020284600F04AFF227AB8
:109B2C000D4BA08853F822600021FFF709FE0B496A
:109B3C0003463246284602B0BDE8704000F039BFFB
:109B4C0002B070BD2CDF010014DF01000CDF01003E
:109B5C0098DF010031DF0100BCDF010034DF0100C0
:109B6C0010B5037A052B0C460FD0437A23B1084A63
:109B7C000849204600F01DFF0749204600F019FF58
:109B8C002046BDE8104000F009BF002AF8D0F3E7EA
:109B9C002CDF010031DF010029DF01002DE9F0434A
:109BAC0085B01F460C9D002395F80C902B73064630
:109BBC000C46904629463846FFF796FFB8F1060F3B
:109BCC0009D8DFE808F00412181F2833400031468A
:109BDC00284600F0EEFE002229463846FFF7C0FF6B
:109BEC0085F80C9005B0BDE8F08322683146284614
:109BFC0000F0DFFEEFE7D4E900233146284600F001
:109C0C00D8FEE8E7A36800933146D4E90023284640
:109C1C0000F0CFFEDFE7E3680193A36800933146C1
:109C2C00D4E90023284600F0C4FED4E7236902934C
:109C3C00E3680193A36800933146D4E900232846D6
:109C4C0000F0B7FEC7E76369039323690293E368E7
:109C5C000193A36800933146D4E90023284600F011
:109C6C00A8FEB8E708292DE9F74F80460E4617469F
:109C7C001C463CD800251B7B2573214610460193BE
:109C8C00FFF732FFDFF880A0DFF880B0AE4231D9A9
:109C9C0018F805205946204600F08BFE0135082D9A
:109CAC00F4D11B49DFF86CA0DFF86CB0204600F053
:109CBC0080FE4FF000094E4521D918F809507E2D31
:109CCC0003D8284603F0E4FF00B92E252A4659464E
:109CDC00204600F06EFE09F10109B9F1080FEAD136
:109CEC00012221463846FFF73BFF019B237303B04B
:109CFC00BDE8F08F5146204600F05BFECEE75146A2
:109D0C00204600F056FEE6E744DF01003EDF01008E
:109D1C0048DF010046DF01004ADF0100C30710B530
:109D2C0007D4F023054A4008145C2340194311540E
:109D3C0010BD0901C9B20F23F4E700BF2821002090
:109D4C0030B5094B1C78094B0246196800239C421C
:109D5C0001DC002030BD11F83350954201EBC300FB
:109D6C00F8D00133F3E700BFF820002038210020A1
:109D7C0070B504460D46FFF7E3FF30B1436823B1DD
:109D8C0029462046BDE87040184770BD034B044877
:109D9C0019680022490800F058BA00BFFC200020C6
:109DAC000021002010B5C0B2FFF7CAFF04460078AE
:109DBC0001F0C6FD63785A1E53425341834208D1C9
:109DCC00044BD3E90023134303D1BDE81040FFF744
:109DDC00DDBF10BD2021002037B54308374AD35CC6
:109DEC00C2074CBF1B0903F00F0304460D46042B9E
:109DFC0025D8DFE803F003262F3C4000F9B1012100
:109E0C00FFF78CFF00230DF107008DF8073000F0F1
:109E1C0009FB0120A4F12003C4F12001284A20FAF7
:109E2C0001F100FA03F30B43A040D2E900412043B7
:109E3C000B43C2E900039DF8070000F017FB03B0C9
:109E4C0030BD002918BF0221204603B0BDE83040C8
:109E5C00FFF764BF49B10321FFF760FF01212046E2
:109E6C0003B0BDE83040FFF783BF0121ECE70029C8
:109E7C00E5D10421E8E709B10321E5E7FFF74EFF3F
:109E8C0029462046FFF774FF0DF107008DF80750A7
:109E9C0000F0C8FA0120A4F12003C4F12001084A03
:109EAC0020FA01F100FA03F30B43A040D2E9004180
:109EBC0024EA000021EA0303BBE700BF28210020AD
:109ECC00202100202DE9F041124E134F002433784D
:109EDC00A34208DC114BD3E90023134318D0BDE88F
:109EEC00F041FFF753BF3D6805EBC40815F834008B
:109EFC0001F026FD98F801305A1E53425341181AAE
:109F0C004142414115F83400FFF766FF0134DEE7AA
:109F1C00BDE8F081F820002038210020202100200D
:109F2C00092AF7B505460C4616463ED901F01EFC2B
:109F3C00E8B11F4B1F481D601F4B204F1C70204B5E
:109F4C00002110221E6003F0D1FE1E4B00200021C8
:109F5C00C3E90001013CE4B20326FF2C0DD11A4ADF
:109F6C001A48002103B0BDE8F04000F063B901F0DD
:109F7C00BFFB0028DDD003B0F0BD9DF8063015F80E
:109F8C0034008DF8046005EBC40223F007038DF850
:109F9C00063001A993788DF805303A4601F0F0FBB4
:109FAC00013CE4B20028D8D0E5E70720E3E700BF86
:109FBC003821002028210020F8200020B19D01002C
:109FCC00FC20002020210020D19E0100DCDF0100BC
:109FDC0070B5084D084E00242B789C4201D300200C
:109FEC0070BD3368012113F8340001F041FC0134D9
:109FFC00F2E700BFF82000203821002073B5114D86
:10A00C00114E00242B789C4215D300230DF1070030
:10A01C008DF8073000F006FA0C4B00210020C3E944
:10A02C0000019DF8070000F021FA094802B0BDE8D4
:10A03C00704000F022B9336813F8340001F05EFC74
:10A04C000134DFE7F82000203821002020210020F7
:10A05C00002100201FB50021039001AA44F2010049
:10A06C00CDE9011100F004F805B05DF804FB000027
:10A07C0038B572B6FFF724FDFFF79EFB0028FBD125
:10A08C00104B114C114D1249E41AE408240444F00D
:10A09C000100FFF7DBFCD5F8F030DB0700D500BE84
:10A0AC000C4944F00200FFF7D1FCBFF34F8FEA6874
:10A0BC00094B02F4E0621343EB60BFF34F8F00BF18
:10A0CC00FDE700BF24DE01004CDE010000ED00E0E6
:10A0DC00E0DF0100ECDF01000400FA0510B5D0E967
:10A0EC000243D1E90202A04272EB03032CBF012010
:10A0FC00002010BD08B50A4800F0E9FA094AD2E977
:10A10C000031C018084BD3E9002341F10001904203
:10A11C0071EB030303D210F1807041F1000108BD13
:10A12C00FC1A002040210020B821002037B505463C
:10A13C000C460A4801A900F0FEFA60B105704460B3
:10A14C0001A9064800F021FB18B1054800F0C4FA3B
:10A15C00002003B030BD0420FBE700BFA421002089
:10A16C00FC1A002038B5184B1B78044613B900258F
:10A17C00284638BD0028FAD0037F03F0FF05002BDA
:10A18C00F5D0FFF7B7FFD4E90223904271EB03033C
:10A19C0014D3236903B92377D4E90530984721698F
:10A1AC000029E4D0237F03F0FF05002BDFD0D4E996
:10A1BC0002325B1842F10002C4E902320348214624
:10A1CC0000F0B3FED4E700BF4821002008E00100F6
:10A1DC0013B5114B114918680190082310485822E7
:10A1EC0000F096FA044698B90E4A0F4801A900F0FF
:10A1FC005FF9044660B90C48012100F04BFA0123C9
:10A20C000A4A0948194600F0ADF9094B01221A70A7
:10A21C00204602B010BD00BF04E001004C2100201C
:10A22C00A4210020A1A20100FC1A0020FFFF7F0046
:10A23C00482100203AB103685A614A1E51425141EB
:10A24C001961002070470720704738B5037F04461A
:10A25C000D4683B98261FFF74DFF2369281841F140
:10A26C000001C4E9020103B1256121460020BDE8CB
:10A27C003840FFF75BBF002038BD00230146037751
:10A28C000120FFF753BF0000014800F020BA00BFC7
:10A29C00FC1A00202DE9F347064600F003FA40B102
:10A2AC00584AD2E9003113F1807341F10001C2E93F
:10A2BC0000310021304600F004FA38B1524C2368CA
:10A2CC0023B12068FFF74EFF0023236001213046A5
:10A2DC0000F0F7F920B1FFF70DFF4C4BC3E900017B
:10A2EC004B48494D4B4C4C4F01A900F05EFA0028ED
:10A2FC0042D1DFF82081444CDFF82091404600F039
:10A30C002AFE2368002872D07BB12368D0E9025260
:10A31C00D3E902138D4272EB03032AD223681B7F0D
:10A32C001BB12168404600F000FE404600F00DFED7
:10A33C00D0E9027A0546FFF7DDFE3F1A6AEB010A07
:10A34C00012F7AF1000345DBB7F5350F40D3FFF74A
:10A35C009BFF334A02444FF496030021484600F019
:10A36C0021F900283ED1236813B9304600F0F2F8E9
:10A37C00256002B0BDE8F0870378012B1DD0022BBD
:10A38C0009D14FF00008204600F0DFFD002836D040
:10A39C0080F81C80F7E73BB941680B7F23B9012398
:10A3AC000B77204600F0C1FD01A9194800F028FAEE
:10A3BC0001A9174800F0F9F999E741682B6899420F
:10A3CC0002D100232B60EFE7204600F0C7FDEBE73E
:10A3DC00AA68C0E70021484600F069F92846FFF753
:10A3EC00C1FE01E00D28F9D00023236086E7002B85
:10A3FC00BFD1304602B0BDE8F04700F0AFB8012342
:10A40C003B70D1E740210020C0210020B821002062
:10A41C00A421002008E0010048210020FC1A0020A3
:10A42C00FFFFB40070B5EFF3108672B60C4A946857
:10A43C0001239CB993600B4B0B4DD3F88010294032
:10A44C001160C3F88050D3F8841051604FF0FF3284
:10A45C00C3F88420047006B962B670BD0370FAE7C5
:10A46C00C421002000E100E0FC06FFBD084B9A6807
:10A47C0010B55AB150B9EFF3108172B6054A1C6889
:10A48C0014605C685460986001B962B610BD00BF7E
:10A49C00C421002000E100E00346405882B028B1FE
:10A4AC0000225A505B580193019B012002B0704767
:10A4BC00F8B5204B4479204E43F824201F4A204BFA
:10A4CC0006EBC4049B1A2279DB081B0432B143F05F
:10A4DC0002001C49FFF7BAFA0820F8BD02680C8884
:10A4EC00C2F8084590F904508A7804795201002D7D
:10A4FC00D2B219DB14494F1987F8002301226D09D8
:10A50C0004F01F0402FA04F441F82540427906EBEA
:10A51C00C201012446F832000C7143F003000B49D0
:10A52C00FFF794FA0020D8E7094904F00F040A5504
:10A53C00ECE700BFD8210020D021002024DE010050
:10A54C005CDE010014E0010000E100E036E00100F7
:10A55C0014ED00E0036801221A60704703680122C1
:10A56C005A60704773B501F15005AD000068ADB28B
:10A57C004FF480348C400026C0F80843C0F84843A0
:10A58C00465101F5A8714559019522F07F42019D74
:10A59C0040F82120C0F844430BB1C0F8044302B08A
:10A5AC0070BD00002DE9F74F0D4622F07F44026884
:10A5BC004FF4803705F150068F408046B60002EB11
:10A5CC008500C2F84873B6B2C2F80873D2F8041505
:10A5DC0099464FF0000BD0F84035C0F8401542F8C2
:10A5EC0006B05B1A9259009223F07F43012B009A1C
:10A5FC004FEA850A0CD1264B4FF4806043F00103DF
:10A60C009847D8F8003043F806B09B590193019B4A
:10A61C00D8F80010D1F80465C1F84473A31B23F0DB
:10A62C007F43012B1CD11A4B05F5A875013443F05F
:10A63C00010341F825404FF480609847D8F800306A
:10A64C00D3F804359E4209D1D8F800300020C3F865
:10A65C004473C3F8047303B0BDE8F08F0D20FAE720
:10A66C008A44C9F1FF13CAF84045D1F80405221AEF
:10A67C00013A22F07F4203F57F439342EED3002A46
:10A68C00E2D10134CAF84045D1F804359842DAE7F2
:10A69C0050E0010003680222C3F8442309B1C3F857
:10A6AC000423704700684FF48271FFF7F5BE4FF436
:10A6BC00803303FA01F10368C3F84813C3F8081395
:10A6CC00704750318900006889B2FFF7E5BE036816
:10A6DC00D3F804057047000090F90430002B09DB17
:10A6EC005A09012103F01F0301FA03F34032024916
:10A6FC0041F82230704700BF00E100E0024B034AF2
:10A70C001B681068184700BFD8210020D0210020FA
:10A71C0030B5054659B1B2FBF3F403FB1424A0B2D7
:10A72C0038B9C5E90010A860AA81EB8130BD0E20B4
:10A73C00FCE70920FAE737B550E8013F9DB2C48920
:10A74C0025448489A54228BF2D1B0489A54202BF3C
:10A75C00BFF32F8F002207E0C5EA030540E8015440
:10A76C00002CE9D14FF001028DF803200193019ADE
:10A77C000A609DF8031001F0FF0321B1006810FA84
:10A78C0082F003B030BD1846FBE70A884B889A422A
:10A79C0009D150E8012FC2EA024240E80123002B04
:10A7AC00F7D1012070470020704737B550E8023FC1
:10A7BC001FFAA3F5C488A54202BFBFF32F8F002256
:10A7CC000DE0C48925448489A54228BF2D1BC3EA0A
:10A7DC00054540E80254002CE8D14FF001028DF8F9
:10A7EC0003200193019A0A609DF8031001F0FF0306
:10A7FC0021B1006800EB124003B030BD1846FBE7F6
:10A80C000A884B889A4209D150E8022FC2EA2242A8
:10A81C0040E80223002BF7D101207047002070473D
:10A82C0001F01F024B090121914000EB830000F065
:10A83C001EB801F01F0301229A404B0900EB830064
:10A84C00D14300F02CB84B0901F01F0150F8230044
:10A85C00C84000F00100704710B5034653E8000FE4
:10A86C000A4643E8002494F0000FF7D110BD10B550
:10A87C00034653E8002F42EA010043E8000494F039
:10A88C00000FF6D110BD10B5034653E8000F00EAD7
:10A89C00010243E8002494F0000FF6D110BD10B56E
:10A8AC00034653E8002F02EA010043E8000494F049
:10A8BC00000FF6D110BD10B5034653E8002F02EB84
:10A8CC00010043E8000494F0000FF6D110BD10B560
:10A8DC00034653E8002FA2EB010043E8000494F078
:10A8EC00000FF6D110BD0121FFF7C1BF0021FFF70A
:10A8FC00CABF10B590B1D0E9012301689B1ADBB235
:10A90C000A60013BDBB2FF2B026802D10020107100
:10A91C0010BD11684C1C14600B70F2E70E20F7E7A9
:10A92C0037B5054600240DF107008DF80740FFF7F9
:10A93C0079FD2A686B68116899420ED9481E10601F
:10A94C0011F8013CEC68298A01FB0344AB681179CE
:10A95C001B1ADBB2994238BF13719DF80700FFF741
:10A96C0085FD204603B030BD37B5054600230DF1FB
:10A97C0007000C468DF80730FFF754FD2A68136862
:10A98C00591C1160E968641A298AB4FBF1F41C7033
:10A99C009DF80700FFF76AFD03B030BD826810B563
:10A9AC0004462AB143690168006998470023A360F3
:10A9BC0010BD0EB403B5039921B104AB01AA0193E8
:10A9CC0000F076F802B05DF804EB03B070470A298A
:10A9DC0038B504460D4602D10D21FFF7F8FFA368E8
:10A9EC002268591CA160D554D4E901329A4204D38F
:10A9FC002046BDE83840FFF7D1BF38BD2DE9F84FF0
:10AA0C009846DDE90A43154682460F460A464FF042
:10AA1C000109AA420FD2C14538BFC14613F0010B40
:10AA2C0001D16CB900240126B8F1010F1BD908F132
:10AA3C00FF386E43F8E709F10109B2FBF5F2E8E7DC
:10AA4C009B070ED5B8F1000F0CBF30262026A14570
:10AA5C00E9D2013C31465046FFF7B9FF002CF6D144
:10AA6C00E0E72026F3E7B7FBF6F39D42E1D9DFF8E8
:10AA7C003C80B7FBF6F3504618F8031006FB13772F
:10AA8C00FFF7A5FF3346AB42B6FBF5F6F1D2BBF1AF
:10AA9C00000F02D00CB1A14501D3BDE8F88F2021E5
:10AAAC005046013CFFF793FFF4E700BF56E001006E
:10AABC002DE9F74F054617468846002900F03E81E0
:10AACC0018F8011B49B92B7B002B00F03781284665
:10AADC0003B0BDE8F04FFFF761BF252940F0B78008
:10AAEC00002698F800302D2B424608F1010823D09F
:10AAFC00302B24D02B2B25D000242A2B02F1010142
:10AB0C0023D13B681A1D1B683A601C440A46137813
:10AB1C002E2B26D101324FF0000A104610F8011BE3
:10AB2C00A1F1300CBCF1090F1DD80A2303FB0A1349
:10AB3C00A3F1300A0246F0E746F00106D1E746F0F1
:10AB4C000206CEE746F00406CBE711F8013CA3F170
:10AB5C0030000928DBD80A2202FB0434303C0A46B8
:10AB6C00CBE74FF0000A12F8011B01F0FB0068283C
:10AB7C009046F8D0782909D86F290CD8632962D06F
:10AB8C0022D8252963D0582900F0888098F8003005
:10AB9C00002B95D197E770390829F7D801A353F802
:10ABAC0021F000BF23AD010099AB010099AB01006E
:10ABBC00B9AC010099AB010097AC010099AB010055
:10ABCC0099AB0100A9AC0100642901D06929DDD140
:10ABDC003A68D2F80090111D89EAE9723960A2EB4B
:10ABEC00E9724FF0010B092A35DCD34538BFD34647
:10ABFC002CB1B9F1000F01DB720700D5013CB30792
:10AC0C0002D5BAF1000F03D0F00701D44CBB0024DD
:10AC1C00B9F1000F2DDAC9F100092D212846FFF7F3
:10AC2C00D6FE06F00302022A04D1BAF1000F01D1BC
:10AC3C001CBB0024CDE9004653460A22494628464F
:10AC4C00FFF7DCFEA2E73B681A1D19783A6028462C
:10AC5C00FFF7BDFE9AE70A230BF1010BB2FBF3F2EF
:10AC6C00C1E7A345D4D220212846013CFFF7AFFE13
:10AC7C00CCE77107D5D52B21D0E7A345DAD230210B
:10AC8C002846013CFFF7A3FED2E73968CDE9004620
:10AC9C000A1D3A6053460A220968D0E739680A1D32
:10ACAC003A60CDE9004653461022F5E73B681A1D81
:10ACBC003A6016F00106D3F8009024D1B9F1000FD8
:10ACCC0003D0484603F045F80646B4421DD809F1B6
:10ACDC00FF3919F8011F00293FF458AF2846FFF738
:10ACEC0076FEF6E728460136FFF771FE19F80610D6
:10ACFC000029F7D1A642BFF449AF20212846013CD8
:10AD0C00FFF765FEF6E70026F0E720212846013C18
:10AD1C00FFF75DFED9E73B681A1D3A6030212846E3
:10AD2C001C68FFF754FE78212846FFF750FE0022DE
:10AD3C000823CDE900322146102280E703B0BDE89C
:10AD4C00F08F00BF2DE9F84FB0F806A04579D2F886
:10AD5C0000B09DF828900AFB05F5043D88460BEBE6
:10AD6C000301A94203F1040488BFA5EB030BB4FB58
:10AD7C00FAF607460AFB1644C2F800B04EB9AAEB25
:10AD8C0004055D4528BF5D46BBF1000F04D1BDE84D
:10AD9C00F88F3F68013EF1E7043408EB06003C44B1
:10ADAC002A46B9F1000F0DD02146ABEB050B02F092
:10ADBC0074FFDA452E443F6855464FF0000428BF17
:10ADCC005D46E1E701462046EFE7FFF792BDF8B597
:10ADDC0046790146721E0546002393422D6803D323
:10ADEC000024A64202D8F8BD0133F6E70F682846C6
:10ADFC00FFF7BAFD01343946F3E72DE9F843068A2B
:10AE0C00CD1C0746FFF78CFD043E35440446B5FBCC
:10AE1C00F6F5F0B14FF48073EDB28380C680013D3E
:10AE2C00076081464FF00008A84512D23846FFF75C
:10AE3C0077FD064648B163790133637108F1010867
:10AE4C00C9F8000007608146EEE72046FFF7BFFF18
:10AE5C0034462046BDE8F88301210430FFF72BBDB2
:10AE6C0010B5012104460430FFF731FDC0B220B902
:10AE7C002046BDE81040FFF7AABF10BD1FB50392D6
:10AE8C000022009203AAFFF75DFF05B05DF804FBFA
:10AE9C001FB503920122009203AAFFF753FF05B0DE
:10AEAC005DF804FB41DF7047064B10B500241C70A5
:10AEBC00054B1C60BFF35F8F0449054800F01FF879
:10AECC00204610BDE4210020E821002070E00100A4
:10AEDC00DC21002008B502F019FD18B1BDE80840CE
:10AEEC00FFF7E0BF20BF40BF20BF08BD8368002232
:10AEFC005A60C3E904229A60DA601A6070470B68E2
:10AF0C004A684360934208BF0023016008BF436056
:10AF1C007047436843B10268916852680B4493428E
:10AF2C00436004BF00234360704770B54468064615
:10AF3C000D46206818B1B3682946984718B923689C
:10AF4C002B60256070BD2468F3E74368186808B16E
:10AF5C0002681A607047436818687047436818683D
:10AF6C0000B97047884203D102681A60012070470B
:10AF7C0003460068F4E7000010B50D49A1F5947282
:10AF8C00914201D800200FE08C1AE30F03EBE4038D
:10AF9C005B1002EBC30452F83330834205D802D263
:10AFAC0004F10802ECE7606810BD2146E8E700BF39
:10AFBC007CE5010008B5FFF7DFFF024B002808BF56
:10AFCC00184608BD3FE40100BFF34F8F0549064BFF
:10AFDC00CA6802F4E0621343CB60BFF34F8F00BF2B
:10AFEC00FDE700BF00ED00E00400FA054FF08053D0
:10AFFC00D3F83001421C04BF4FF0704393F8E00FBC
:10B00C00831F5842584170474FF0704393F8E02F1C
:10B01C00062A09D1D3F8E83FC3F30313033B032BF0
:10B02C0002D8024AD05C70470020704784E50100CA
:10B03C004FF08053D3F83001421C04BF4FF07043E3
:10B04C0093F8E00F062804D0A0F10A0358425841A7
:10B05C00704701207047000008B5FFF7C7FF40B1EB
:10B06C004FF08053A44AD3F82433C3F30423C2F81B
:10B07C004035FFF7C9FF10B1A04BA14A5A67FFF743
:10B08C00D7FF48B14FF080534FF08042D3F8443291
:10B09C00C3F34233C2F83C35FFF7B6FF30B1994ADF
:10B0AC00D2F8FC3023F08073C2F8FC30FFF7C0FFFD
:10B0BC0040B14FF080430022C3F80C21C3F810219B
:10B0CC00C3F83825FFF7A0FF20B14FF080430322CF
:10B0DC00C3F8A025FFF798FF60B18B4B0522C3F88E
:10B0EC0010260122C3F888260022C3F818263F2216
:10B0FC00C3F814264FF08053D3F83021501C09BFED
:10B10C004FF07043D3F8343193F8E02FD3F8E83F85
:10B11C0008BFC3F30313062A4ED1033B032B03D8FA
:10B12C007A4AD35C002B49D04FF08052784BD2F83E
:10B13C000414C3F82015D2F80814C3F82415D2F857
:10B14C000C14C3F82815D2F81014C3F82C15D2F827
:10B15C001414C3F83015D2F81814C3F83415D2F8F7
:10B16C001C14C3F84015D2F82014C3F84415D2F8B7
:10B17C002414C3F84815D2F82814C3F84C15D2F887
:10B18C002C14C3F85015D2F83014C3F85415D2F857
:10B19C003414C3F86015D2F83814C3F86415D2F817
:10B1AC003C14C3F86815D2F84014C3F86C15D2F8E7
:10B1BC004424C3F8702501E00A2AB5D0FFF716FF26
:10B1CC0048B14FF080534FF08042D3F8583203F01F
:10B1DC004F03C2F8E43EFFF72BFF48B14FF080431A
:10B1EC00D3F80024D10744BF6FF00102C3F8002448
:10B1FC004FF08053D3F83021062A0ED1D3F83431D6
:10B20C00033B032B02D8434AD35CBBB1424AD2F86E
:10B21C003C3743F48063C2F83C374FF08053D3F88B
:10B22C0030210A2A0AD1D3F834313BB14FF0804295
:10B23C00D2F8E43E43F00F03C2F8E43E4FF0102383
:10B24C00D3F80022002A03DBD3F80422002A23DAE5
:10B25C00324B0122C3F80425D3F80024002AFBD07A
:10B26C004FF010221521C2F80012D3F80024002A46
:10B27C00FBD04FF010231522C3F80422274BD3F830
:10B28C000024002AFBD00022C3F80425D3F80024A4
:10B29C00002AFBD0FFF798FED3F80022D20703D484
:10B2AC00D3F80432DB0722D51C4B0122C3F804254A
:10B2BC00D3F80024002AFBD04FF010220021C2F852
:10B2CC000012D3F80024002AFBD04FF010230022E8
:10B2DC00C3F80422114BD3F80024002AFBD000221F
:10B2EC00C3F80425D3F80024002AFBD0D2E70C4B7A
:10B2FC000C4A1A6008BD00BF0030014000C0074076
:10B30C000DF0ADBA00ED00E0005000407CE501000E
:10B31C0000C0004080E501000010004000E001404A
:10B32C00041B00200090D003044B1A5C01239340B3
:10B33C004FF0A042C2F80C35704700BF88E5010001
:10B34C00044B1A5C012393404FF0A042C2F808351D
:10B35C00704700BF88E5010008B50020FFF7F0FF3B
:10B36C000120FFF7EDFF0220FFF7EAFFBDE80840E0
:10B37C000320FFF7E5BFC20708B501460CD54FF017
:10B38C00A0430322C3F84427C3F84827C3F84C272B
:10B39C00C3F85027FFF7E0FF8B070AD54FF0A04307
:10B3AC000C22C3F83427C3F83827C3F83C27C3F85A
:10B3BC00402708BD38B5074C051E04F1080318BF1B
:10B3CC001C4623682BB11A6822605B682846984794
:10B3DC00F7E738BDF421002020B9054B01225A7043
:10B3EC00FFF7E8BF012802D1014A9070F8E77047D7
:10B3FC00EC21002020B9034B01225A70FFF7DABF71
:10B40C00704700BFEC21002038B50E4C2378B3B93F
:10B41C000D486360A3602361E36000F0E7F8054624
:10B42C0002F074FA08B900F0EDF801232370074B11
:10B43C00D3F800340BB10123A370284638BD852501
:10B44C00F5E700BFEC210020E5B30100000001404E
:10B45C0037B50D4C00230DF107008DF80730FEF7C2
:10B46C00E1FFE368013BE360E36833B9074BD3F8D2
:10B47C00005415B900F0D8F8A5709DF80700FEF738
:10B48C00F5FF03B030BD00BFEC21002000000140EF
:10B49C00012813B50CD0032820D038B9134B012246
:10B4AC00C3F88020BFF34F8FBFF36F8F02B010BD76
:10B4BC000F4C00230DF107008DF80730FEF7B2FF9B
:10B4CC0023780BB9FFF7A0FFE3689DF80700013361
:10B4DC00E3600123A370FEF7C9FFE7E700F092F8E1
:10B4EC0002B0BDE81040FFF7B3BF00BF00E100E0C1
:10B4FC00EC2100201FB503788DF8003043680193D0
:10B50C0083688DF80830C368054A0393054B684679
:10B51C0053F8213052F82110984705B05DF804FB20
:10B52C0000220020042200201FB503788DF8003083
:10B53C004368019383688DF80830C368054A039308
:10B54C00054B684653F8213052F82110984705B046
:10B55C005DF804FB0022002004220020F0B5194BFA
:10B56C0090F800C091F81DE043F82C20164B1646BD
:10B57C000A6943F82C20154B03F80CE00C460746DF
:10B58C000FCC89B06D460FC594E80F0085E80F000D
:10B59C00CDF810C0BEF1000F09D0002E0C4A694640
:10B5AC0008BF3246381D00F0ABFD09B0F0BD002ECF
:10B5BC00084A694608BF324607F10C0000F082FBCE
:10B5CC00F3E700BF04220020002200200822002004
:10B5DC0001B5010035B5010000F18040002382B0B7
:10B5EC00036003680193019B02B07047044B024651
:10B5FC00187918B91A6001229A8070478520704713
:10B60C000C220020074B1A68D20704D4C02283F8FE
:10B61C00002301221A604FF080430122C3F8182541
:10B62C00704700BF00E100E04FF0804208B50223F4
:10B63C00C2F808334FF48270FFF7CEFF0123D360BA
:10B64C00D2F81834DB03FBD408BD00004FF0804166
:10B65C0010B5D1F8003163B14FF48070FFF7BCFF27
:10B66C000D4B58790122C1F8082310B95A711B6887
:10B67C0098474FF08042D2F8043163B14FF4827096
:10B68C00FFF7AAFF0223C2F80833034BBDE81040B2
:10B69C001B680120184710BD0C22002000F18040CF
:10B6AC0000F5C040002382B0036003680193019B46
:10B6BC0002B07047800000F1A040D0F8002722F4BF
:10B6CC004032C0F80027D0F8003743EA0143C0F8F5
:10B6DC0000377047054B4FF0FF32072843F8202006
:10B6EC0084BFC01880F84820704700BF1422002087
:10B6FC0010B51A4C94F858306BBB4FF0FF3222FA4D
:10B70C0003F1C90748BFE11803F1010348BF81F8F1
:10B71C003020202BF3D10021C8B20131FFF7DAFF22
:10B72C000C29F9D1042200210D4802F0DFFA0D4B4F
:10B73C00C02283F8062340221A604FF4BE70FFF734
:10B74C00ADFF094B4FF00042C3F80423012384F8EA
:10B75C005830002010BD0820FCE700BF1422002048
:10B76C006822002000E100E000600040034B93F8E9
:10B77C005800003818BF0120704700BF1422002069
:10B78C00F0B5394E331893F93030002B69DA8D78D7
:10B79C00C5F34005002D0BBF082300230C240824FF
:10B7AC00A34201D10420F0BD56F82370013743D1D8
:10B7BC0037185CB246F8232087F8304015B9F218D8
:10B7CC0082F848008A78550716D4D70736D58200F8
:10B7DC0002F1A042D2F8005725F00205C2F800573A
:10B7EC00224FC50800F0070C012202FA0CF217F8E0
:10B7FC0005C042EA0C027A558A780D7812F00202E2
:10B80C0025D09B0003F1804303F5C0430002D3F81D
:10B81C00102522F4473222F44072C3F810252D046F
:10B82C00D3F8102500F4F85005F4403528431043A4
:10B83C00C3F810050020B6E70133B1E74D7800F5E9
:10B84C00E0724FF0A047AD0047F82250C8E7083C23
:10B85C0046FA84F494F8500040EA851584F8505068
:10B86C00E8E708209FE700BF142200206822002090
:10B87C0038B5204C251895F93020072A18DD083AE0
:10B88C0044FA82F494F850309B09032B0BD14FF0FF
:10B89C00A043D3F81015C14001F001010231BDE8FD
:10B8AC003840FFF707BF012B0CBF02210321F6E73D
:10B8BC00D3B2072B1DD8930003F1804303F5C0438B
:10B8CC00D3F8100540F00100C3F8100502F1400058
:10B8DC0040B2800080B2FFF7E1FE51B195F93030F3
:10B8EC0054F823302BB1012303FA02F2024BC3F8B4
:10B8FC00042338BD14220020006000400E4B03448A
:10B90C0093F93020072A02DD0021FFF7D3BED3B212
:10B91C00072B10D8930003F1804303F5C043D3F8F1
:10B92C00101521F00101C3F81015012303FA02F2DE
:10B93C00024BC3F80823704714220020006000401B
:10B94C004FF0A043D3F8103523FA00F000F00100BB
:10B95C00704700002DE9F74F00244E4D01944FF431
:10B96C008072012102F1804303F5C04390B21B6841
:10B97C00012B06D1D5F804330B4202D0FFF78EFE13
:10B98C000C430432B2F5907F4FEA4101EAD1414BAE
:10B99C00D3F87C31012B0CD14FF4BE70FFF77EFE37
:10B9AC004FF0A04344F00044D3F820250192C3F893
:10B9BC002025E3B2D3B1384F00250126344210D0F4
:10B9CC00AB0003F1804303F5C043D3F81005D3F863
:10B9DC00101557F8253023B1C1F30141C0F30420F1
:10B9EC0098470135082D4FEA4606E7D1002C48DA76
:10B9FC00294D4FF0A048294E4FF00009012716F9A8
:10BA0C00013B5A1C31D0C3F3C20202A90A44DCB276
:10BA1C0012F8042C03F03F0A03F0070307FA03F3B0
:10BA2C001A4222D00AF5E073504658F82330C3F37B
:10BA3C00014BBBF1020F0CBF03210221FFF73AFEB1
:10BA4C0007FA0AF3C8F8203505EB0A0393F93030EE
:10BA5C0055F823304BB1A109032904D0BBF1020FD7
:10BA6C0012D1012901D15046984709F10109B9F1C8
:10BA7C00040FC4D1D8F820350193C8F82035002B19
:10BA8C00B9D103B0BDE8F08FBBF1030FEDD10229A2
:10BA9C00E8E700BF00600040142200206422002070
:10BAAC00014B1B68184700BF702200200E4B9842B8
:10BABC0037B50C4602D0002003B030BD00230DF189
:10BACC0007008DF80730FEF7ADFC084B1D7915B952
:10BADC0001221C601A719DF80700FEF7C7FC002DAF
:10BAEC00E9D01120E8E700BF0020004070220020C0
:10BAFC00034B984201BF034B00221A601A71704726
:10BB0C0000200040702200200023435082B0435894
:10BB1C000193019B02B070470A4610B54FF48E7129
:10BB2C00FFF7F2FF136A9168C95C136A0133136261
:10BB3C00C0F81C1510BD8B690A4610B54FF4847102
:10BB4C0023B9FFF7E1FFD0F8183510BDFFF7DCFF84
:10BB5C00536AD168D0F81805C854536A013353623C
:10BB6C00F3E700001FB501238DF80030044BCDE93D
:10BB7C000110D3E900126846904705B05DF804FB4C
:10BB8C007822002030B54D4DD5F804339A0585B098
:10BB9C0051D5D5F82431002B4DD04FF49271284655
:10BBAC00FFF7B2FF4FF40173C5F80833444B93F819
:10BBBC0029200AB901226A60404902228DF800202E
:10BBCC00D1F88024C1F8802403929A690292DA6831
:10BBDC0001920022C3E906226846D3E9001290477D
:10BBEC003648D0F81C315BB1354A5169136A994219
:10BBFC004DD992F82830002B49D11146FFF78CFF14
:10BC0C002E48D0F84431002B56D04FF4A271FFF7D8
:10BC1C007BFF2B4B93F829200AB1012202609A6911
:10BC2C00002A49D0586AD96800229A6105B0BDE84B
:10BC3C003040FFF797BFD5F804335B07D0D5D5F864
:10BC4C000831002BCCD01E4C1C482146FFF773FF4B
:10BC5C00636AA2699A42C3D1E369E1684BB1A361FB
:10BC6C002369E3600023606AE3616362FFF77AFF94
:10BC7C00B6E794F829300BB901236B600F4B4FF4E6
:10BC8C000172C3F808230023606AA361EEE70B4836
:10BC9C004FF48E71FFF738FF5369002BB0D0516908
:10BCAC000291002391688DF8003001915361684630
:10BCBC00D2E900139847A3E705B030BD002000403F
:10BCCC00782200202DE9F843534D90F804802C2362
:10BCDC0003FB0853064693F82A300C469146002B7A
:10BCEC0040F096804D490068FFF7E0FE07460028BB
:10BCFC0040F0908022683068511C0BD04FF0A0416E
:10BD0C0001239340C1F8083502F5E0734FF0030CA2
:10BD1C0041F823C061684B1C1FBF01F5E0734FF065
:10BD2C00A04C4FF0000E4CF823E0A369C0F824356A
:10BD3C0094F814C0637DBCF1010F4CEA0303C0F806
:10BD4C006C35C0F81415C0F80C251DD1A268531C15
:10BD5C001FBF02F5E0734FF0A0414FF0000C41F80B
:10BD6C0023C0E368591C0BD04FF0A04C0121994023
:10BD7C00CCF8081503F5E0714FF0030E4CF821E0F8
:10BD8C00C0F80835C0F810252C2202FB08F2AB18BD
:10BD9C00C3F804902369AB50B9F1000F20D04FF4D5
:10BDAC008E71247FFFF7B0FE4FF4A2713068FFF75D
:10BDBC00ABFE32681A4BC2F80433130B42F3073252
:10BDCC006101002AC9B21EDB1648841884F80013DE
:10BDDC000121520903F01F0301FA03F340F822304A
:10BDEC0033680422C3F800252C2303FB08530022DC
:10BDFC00C3E9062283F829205A61012283F82A20FC
:10BE0C003846BDE8F883084A03F00F03D154E7E73E
:10BE1C000827F5E71127F3E77822002091BB0100F2
:10BE2C008000020000E100E014ED00E0F8B50368CA
:10BE3C000579304C0022C3F800252C2202FB054268
:10BE4C005268A2B12C4AC3F808231A0B43F30733E8
:10BE5C00002B0CDB02F01F015B0901228A4020330E
:10BE6C00264941F82320BFF34F8FBFF36F8F006833
:10BE7C00D0F80C65D0F81415D0F80835D0F810258A
:10BE8C004FF0FF37BE42C0F8147518BF06F5E076C8
:10BE9C00C0F80C75C0F80875C0F810751EBF4FF0CF
:10BEAC00A0474FF0020C47F826C04E1C1FBF4FF0A6
:10BEBC00A04601F5E071022746F82170511C1FBF06
:10BECC004FF0A04102F5E072022641F822605A1CA4
:10BEDC001FBF03F5E0734FF0A042022142F823107C
:10BEEC00FFF706FE2C2303FB0544002384F82A30BD
:10BEFC006360F8BD782200208402020000E100E0BB
:10BF0C000279044B2C2101FB02335869003818BF0D
:10BF1C0001207047782200202DE9F84F064690F852
:10BF2C00048089469246FFF7EBFF044600283CD17B
:10BF3C00204F2C2508FB057B4FF48E71CBF814A0F9
:10BF4C00CBF80890CBF820008BF828003068FFF76E
:10BF5C00DBFD3068012383605946FFF7DDFDDBF81C
:10BF6C0004305D461BBB3068DBF814402B6A9C42E6
:10BF7C0011D83368D3F81C21002AFBD00122DA60D7
:10BF8C0000202C2303FB087700237B61BDE8F88F8E
:10BF9C0095F828303BB9D0F81C31002BF8D0594615
:10BFAC00FFF7BAFDE2E70F20EBE71120EEE72046A2
:10BFBC00ECE700BF782200200023435082B04358A6
:10BFCC000193019B02B070471FB501238DF800301F
:10BFDC00044BCDE90110D3E900126846904705B037
:10BFEC005DF804FBA42200207FB5434AD2F82461FB
:10BFFC00002E60D010464FF49271FFF7DDFF022344
:10C00C008DF80030D2F88034C2F880340393D2F823
:10C01C003C350293394BDA6801920022C3E90622BF
:10C02C006846D3E9001290473348D0F8443173B1D5
:10C03C004FF4A271FFF7C0FF304B9A693AB100225E
:10C04C00C3E90622D968D0F83C05FFF7BDFF2A48A2
:10C05C00D0F82031ABB14FF49071FFF7ADFF012355
:10C06C00C360264B5A6962B1D0F84C15029100227C
:10C07C0099688DF8002001915A616846D3E9001245
:10C08C0090471D48D0F858319BB14FF4AC71FFF775
:10C09C0093FF1A4B5A6962B1D0F84C1502910022E9
:10C0AC0099688DF8002001915A616846D3E9001215
:10C0BC00904704B070BDD2F81031002BB4D04FF4BF
:10C0CC0088711046FFF778FF0C4BD2F83C05996944
:10C0DC008842A9D1DC69D96864B1D2F8005225F044
:10C0EC002005C2F800521A699C61DA60DE61FFF724
:10C0FC006BFF99E79C61FAE700200040A422002026
:10C10C002DE9F8435A4E90F80480242303FB08636E
:10C11C00044693F820300D469146002B40F0A38046
:10C12C0054490068FFF7C2FC0746002840F09D8088
:10C13C002A682068511C0BD04FF0A041012393407A
:10C14C00C1F8083502F5E0734FF0030C41F823C039
:10C15C0069684B1C1FBF01F5E0734FF0A04C4FF00A
:10C16C00000E4CF823E0AB69C0F8243595F814C0E8
:10C17C006B7DBCF1010F4CEA0303C0F86C35C0F8C1
:10C18C000C25C0F814151DD1AA68531C1FBF02F54D
:10C19C00E0734FF0A0414FF0000C41F823C0EB6866
:10C1AC00591C0BD04FF0A04C01219940CCF808152C
:10C1BC0003F5E0714FF0030E4CF821E0C0F80835A0
:10C1CC00C0F81025242202FB08F2B318C3F804901F
:10C1DC002B69B350B9F1000F2FD04FF488712A7F1F
:10C1EC00FFF7EAFE20684FF49071FFF7E5FE206838
:10C1FC004FF49271FFF7E0FE20684FF4A271FFF745
:10C20C00DBFE4FF4AC712068FFF7D6FE23681A49A9
:10C21C00C3F80413190B43F307335201002BD2B2AA
:10C22C001CDB1648C51885F8002301225B0901F0B8
:10C23C001F0102FA01F140F8231023680822C3F809
:10C24C000025242303FB08660023C6E9063373612B
:10C25C00012386F820303846BDE8F883084B01F0FE
:10C26C000F015A54E9E70827F5E71127F3E700BF58
:10C27C00A4220020F5BF01001003420000E100E001
:10C28C0014ED00E0F8B5444C0579242303FB054379
:10C29C0002465B680068ABB1404BC0F8083340F312
:10C2AC000733002B4FEA10310CDB01F01F065B0942
:10C2BC000121B14020333A4E46F82310BFF34F8F83
:10C2CC00BFF36F8FD0F8003223F02003C0F8003298
:10C2DC00242303FB05439B692BB14FF4A271FFF799
:10C2EC006BFE012343604FF4AC71FFF765FE012335
:10C2FC00C360242303FB0543D0F858110029FBD05D
:10C30C00996919B1D0F844110029F5D00023C0F86F
:10C31C0000351368D3F80C75D3F81465D3F80825D9
:10C32C00D3F810154FF0FF3C6745C3F80CC518BF88
:10C33C0007F5E077C3F814C5C3F808C5C3F810C5F2
:10C34C001EBF4FF0A0434FF0020C43F827C0771CE0
:10C35C001FBF4FF0A04306F5E076022743F8267086
:10C36C004E1C1FBF01F5E0714FF0A043022643F8AD
:10C37C002160531C1FBF4FF0A04302F5E072022155
:10C38C0043F82210FFF7B4FB242303FB05440023DE
:10C39C0084F820306360F8BDA42200201003420012
:10C3AC0000E100E00279044B242101FB02335869BF
:10C3BC00003818BF01207047A422002001F0604310
:10C3CC00B3F1005F2DE9F0470646884692463BD113
:10C3DC0090F80490FFF7E6FF0446002836D11D4F75
:10C3EC003068242505FB09754FF49071C5F814A02D
:10C3FC00C5F80880FFF7E0FD4FF4AC713068FFF72B
:10C40C00DBFD33686A69A968C3F84415C3F848258D
:10C41C0001229A606A68DAB9D3F82021D3F858015E
:10C42C001AB90028F8D00F2007E00028FBD1012210
:10C43C00DA60D3F85821002AFBD0242303FB0977B8
:10C44C0000237B61BDE8F0871020FBE71120F9E7A2
:10C45C002046F7E7A422002076DF70477ADF70478A
:10C46C007CDF70477FDF70478FDF7047B1DF70472D
:10C47C00FDF7F0BD0388212B13B5044658D007D81F
:10C48C00112B32D0132B4BD0102B0CD002B010BD73
:10C49C00522B5BD0562B01D03B2BF7D1A08813210C
:10C4AC00FFF7DAFF1AE02D4B2D482E49C01AC008B1
:10C4BC00000440F00300FDF7C9FA0120FEF734FF39
:10C4CC000020FEF73DFF284BA1882848198001F079
:10C4DC004FF808B1FDF7BEFDFDF77AFD0028D5D069
:10C4EC0002B0BDE81040FDF7B5BD1C4B1C482049FF
:10C4FC00C01AC008000440F00300FDF7A7FA0120A1
:10C50C00FEF71EFF184B4FF6FF721A80FDF776FDF3
:10C51C0008B1FDF79FFD02B0BDE8104000F022BA53
:10C52C00114800231A4685210088FFF79BFFD5E7A9
:10C53C00002380888DF8043001A98DF80530FFF7B1
:10C54C0093FF0028A2D0FDF785FD9FE70648002346
:10C55C001A4619460088FFF789FFBFE724DE010061
:10C56C004CDE0100AEE50100101B0020F022002083
:10C57C00B8E5010008B503784BB9054B3B21188889
:10C58C00FFF76AFF18B1BDE80840FDF763BD08BDB1
:10C59C00101B00200D2810B50C461AD10F4B10485B
:10C5AC001049C01AC008000440F00300FDF74EFA11
:10C5BC000D4B0E491888224601F000F930F00802A4
:10C5CC000BD043F20202904207D043F20142904258
:10C5DC0003D0BDE81040FDF73DBD10BD24DE0100C9
:10C5EC004CDE0100C5E50100101B0020D822002004
:10C5FC0010B50A4B0A4CE41AE408240444F0030472
:10C60C0002203AB1FEF790FE06492046BDE81040E4
:10C61C00FDF71CBAFEF794FE0349F6E724DE010091
:10C62C004CDE0100DFE50100F0E50100FDF712BD75
:10C63C0000B54FF4804189B00020FDF76DF808B1CA
:10C64C00FDF708FDFCF7A8FF0120FEF794FEFDF7AF
:10C65C00BFFD08B1FDF7FEFC4A4840F23332012120
:10C66C00FDF75EFC08B1FDF7F5FCFEF71DFC08B10B
:10C67C00FDF7F0FC01F00CF908B1FDF7EBFC002321
:10C68C0001A90120019301F08FF908B1FDF7E2FC3B
:10C69C0001A801F039FA08B1FDF7DCFC11233A4886
:10C6AC008DF8003001F055FB374982B26846FFF730
:10C6BC00D7FE08B1FDF7CEFC0822002101A801F03D
:10C6CC0015FB5023ADF80430A023ADF80630002341
:10C6DC00ADF8083001A84FF4C873ADF80A30FFF775
:10C6EC00BDFE08B1FDF7B6FC2848002100F063FE42
:10C6FC0008B1FDF7AFFC002300932548254B0193AF
:10C70C0001A900F023FF08B1FDF7A4FC224B23483C
:10C71C000093694600F0E4FF08B1FDF79BFC1C2276
:10C72C00002101A801F0E2FA00234FF4A022CDE988
:10C73C000132ADF812304FF4A0328DF81430184B92
:10C74C00039206930322174B8DF8102001A8079330
:10C75C0000F098FC08B1FDF77DFC00F097F8124B47
:10C76C0012481349C01AC008000440F00300FDF73A
:10C77C006DF900F0F7F8FDF71FF80028FBD1FEF774
:10C78C00A9FBF8E7081B002002E60100C8220020E4
:10C79C00F02200207DC40100FDC50100D82200203C
:10C7AC0081C5010039C6010024DE01004CDE010008
:10C7BC0010E6010072DF704773DF704774DF70475B
:10C7CC0045DF704730B5254C202323700B23A37015
:10C7DC00B823E370224B00251B68237195B065715B
:10C7EC00A571E571257265726570FDF74DFD7D23B0
:10C7FC0058430E226423C00AB0FBF3F0030A2373E0
:10C80C0060734FF6AA63A572E572ADF80C20049420
:10C81C003C220124294605A8ADF80830ADF80430B7
:10C82C008DF8064001F062FA06238DF8173001AB43
:10C83C000C4A0A9302AB0F930B498DF814501F232B
:10C84C0005A8ADF824408DF84040138000F050F955
:10C85C0008B1FDF7FFFB002015B030BD0023002010
:10C86C00141B00200E2300204123002008B520B10A
:10C87C00044B1B780BB1FFF7A5FF034A1368013378
:10C88C00136008BD40230020FC22002070B5FFF788
:10C89C0099FF60B1284B29482949C01AC0080004E7
:10C8AC0040F00300FDF7D2F80E25284670BD254C4C
:10C8BC002378A0700BB9FF23237700221021224884
:10C8CC0001F014FA214B2362214B224A1B88A384CA
:10C8DC004FF4C863E36000232383012602F11C019B
:10C8EC0002F118002382A360A376A3742671FFF7CC
:10C8FC0061FF054678B1104B104C1749E41AE40857
:10C90C00240444EA0600FDF7A1F8144944F003009E
:10C91C00FDF79CF8C9E73146114AA670062026702F
:10C92C0000F094FE31460220FFF74AFF0028BCD0ED
:10C93C00FDF790FBB9E700BF24DE01004CDE0100DF
:10C94C0028E6010010230020302300204123002082
:10C95C000E230020142300203FE6010060E60100B6
:10C96C0079C801002DE9F0411C4B1D4C1D4FE41AF8
:10C97C00E4083B782404064644F003044BB11A4BFC
:10C98C00187FFFF71BFF002318493B702046FDF76B
:10C99C005DF8FFF77BFF054638B115490246204686
:10C9AC00FDF758F82846BDE8F081DFF83C8098F890
:10C9BC00021098F81C00FFF7FFFE054610B10D4958
:10C9CC000246ECE7D8F80C200B492046FDF742F85C
:10C9DC00003E18BF01263E70E4E700BF24DE0100D4
:10C9EC004CDE0100402300201023002076E60100DD
:10C9FC0084E6010097E60100B2E601006DDF7047A6
:10CA0C0079DF70477DDF704764DF70472DE9F04FA9
:10CA1C0085B000250E9CBDF83CB0B4F800A0019187
:10CA2C00074690461E46A9463A884A450DDC45B154
:10CA3C002388013BA3EB0A039BB2FF2B3AD806F8E1
:10CA4C000A30002005B0BDE8F08F7A6852F8290052
:10CA5C00039000220DF10B0103A8FFF7D5FF00286E
:10CA6C00F0D19DF80B20424521D12288002D14BF16
:10CA7C000020022002EB0801014459451ADC3DB9A3
:10CA8C00013292B2019B2280B3542288013222805F
:10CA9C0022880DF10B01324403A8FFF7B5FF0028E3
:10CAAC00D0D121889DF80B200A442280012509F160
:10CABC000109B9E70C20C5E72DE9F341089FBDF842
:10CACC0024801546CDE90078022204461E46FFF765
:10CADC009DFF50B93346102229462046CDE90878EF
:10CAEC0002B0BDE8F041FFF791BF02B0BDE8F081A4
:10CAFC002DE9F04F00231788138090F82D3085B066
:10CB0C0006460D46144653B3082F01D80C2027E1D6
:10CB1C0002A8FFF773FF002840F022812388082227
:10CB2C00EA54238801339BB21B222380EA542088C9
:10CB3C00013080B2208006220DF10901284401F059
:10CB4C00ACF823889DF8082006339BB212F0FE0245
:10CB5C0018BF01222380EA54238801332380B37841
:10CB6C00FBB123880433BB42D0D802A8FFF748FF9F
:10CB7C00002840F0F58023880322EA5423880133EF
:10CB8C009BB219222380EA542388BDF80820013374
:10CB9C009BB2E9182380EA54120A4A7023880233A4
:10CBAC002380F2789AB12388D91CB942AED80221DD
:10CBBC00E954238801339BB201212380E954238853
:10CBCC000B449BB22380EA5423880B442380726865
:10CBDC00AAB12388D91CB94298D8022192F9002015
:10CBEC00E954238801339BB20A212380E95423881A
:10CBFC0001339BB22380EA54238801332380338989
:10CC0C00002B40F0A180338A5BB1CDE900472B4665
:10CC1C000722032106F11000FFF74EFF002840F019
:10CC2C009F80338B5BB1CDE900472B461522142135
:10CC3C0006F11800FFF740FF002840F09180326A9F
:10CC4C00002A40F09080D6F82480B8F1000F30D044
:10CC5C00B8F804302188981C8A1C0244BA423FF66A
:10CC6C0055AFFE283FF652AF03336B542388013384
:10CC7C009BB2FF222380EA54238801339BB223808A
:10CC8C00B8F80020EA54E918120A4A7020880230D9
:10CC9C0080B22080B8F804205AB1D8F808100029C6
:10CCAC006BD0284400F0F9FF2388B8F80420134413
:10CCBC00238096F82C30002B40F098803078002898
:10CCCC004ED03388012B58D0228802F1020CBC457F
:10CCDC003FF61CAF012805D17378023313449F42F1
:10CCEC00FFF414AF023FBF1ABFB202A905EB0C0050
:10CCFC00ADF80870FFF786FE90BB3178BDF80830B0
:10CD0C00022900F0B98072789A4202D39F4280F0D7
:10CD1C00B180012940F0B280974293B2C0F0AE804E
:10CD2C00ADF808300821BDF80830FE2B3FF6EEAE0A
:10CD3C0022880133AB542288013292B22280A9544A
:10CD4C002288134423800BE0CDE900472B460622B2
:10CD5C00022106F10800FFF7AFFE00283FF453AFA5
:10CD6C0005B0BDE8F08FB4F800C00CF10603BB426F
:10CD7C003FF6CCAE1188052901D80720F0E76FF4F7
:10CD8C00486E01EB0E039BB24FF27D3E7345F4D916
:10CD9C005388052BF1D96FF44860181880B2704590
:10CDAC00EBD94FF6FF70814201D09942E5D80523AB
:10CDBC0005F80C30238801339BB212212380E954EF
:10CDCC00238801339BB223801188E954E818090A9F
:10CDDC004170238802339BB223805288EA54E918AD
:10CDEC00120A4A702388023323802CE7B36A002B83
:10CDFC00C3D04FF000084FF00C0A4FF0160BB16A7D
:10CE0C005FFA88F20AFB02F201EB0209B9F804306E
:10CE1C00981CFE283FF67AAE208803332B542388C7
:10CE2C0001339BB2238005F803B0238801339BB2F6
:10CE3C0023808A5AEA54E918120A4A702088023070
:10CE4C0080B22080B9F804205AB1D9F80810002912
:10CE5C0093D0284400F021FF2388B9F80420134410
:10CE6C00238096F82C2008F101085FFA88F39A4287
:10CE7C00C5D823E7092156E79F42FBD2ADF80870CD
:10CE8C0050E775DF704776DF70477ADF70477BDFDE
:10CE9C0070470000034B1A8882420CBF18460020D2
:10CEAC00704700BF7C230020024B9B6903B11847DD
:10CEBC00704700BF6023002073B585B22846FFF78A
:10CECC00E9FF044638B3174E027A337B9A420CD2F0
:10CEDC0000F10A012846FFF7D4FFF0B111281AD04F
:10CEEC0002B0BDE87040FFF7DFBF00230372337C54
:10CEFC0043B13B212846FFF7C6FF30F0080301D0B1
:10CF0C00FFF7D2FF736933B100228DF80420ADF81E
:10CF1C00065001A8984702B070BD237A01332372E2
:10CF2C00F9E700BF6023002013B50B46497A02468F
:10CF3C000E4871B9D0E901101C7A002C18BF0146BB
:10CF4C005868FDF782F978B102B0BDE81040FFF7E0
:10CF5C00ABBF00211972436933B101218DF8041064
:10CF6C00ADF8062001A8984702B010BD6023002040
:10CF7C004B8802889A4212D842889A420FD38088F2
:10CF8C008B8840F2F311884294BF021A421A9A42DB
:10CF9C0005D80844984234BF002001207047002077
:10CFAC00704700000388122B70B5014659D004D885
:10CFBC00102B1ED0112B44D070BD502BFCD12F4BFD
:10CFCC00C288DB899A42F7D1038A022BF4D1868876
:10CFDC003046FFF75FFF05460028EDD001F1120047
:10CFEC0000F037F938BB6868FDF747F90028E3D043
:10CFFC0009E0C37B012BDFD14FF6FF70FFF74AFF2F
:10D00C00054620B90420BDE87040FFF74DBF1C4A0F
:10D01C008E880680002303721368C0F80A305368A8
:10D02C00C0F80E3010310A30FFF7A2FF134B6872B4
:10D03C00DB89002BC0D129463046BDE87040FFF794
:10D04C0073BF8088FFF726FF04460028B4D04068E1
:10D05C00FDF713F908B1FFF727FF4FF6FF73238095
:10D06C00AAE786883046FFF715FF05460028A3D0AF
:10D07C0008310A30FFF77CFF6872DCE76023002080
:10D08C0090230020F8B5064648B305460FCD154F42
:10D09C003C460FC495E8070084E807003068124C42
:10D0AC003C60B0B1FFF7F1FEC0B932681368236081
:10D0BC00536863600D480E4A4FF6FF7303800D4BA7
:10D0CC0040F8043F0021FDF7B5F8002818BF0320F5
:10D0DC0004E02046FFF7DBFE0028EBD0F8BD0E2065
:10D0EC00FCE700BF60230020902300207C2300205D
:10D0FC00C5CE0100982300200AB1FDF791BBFDF7C6
:10D10C0098BB73B50191019C06466CB100252C4669
:10D11C00294601A8FDF797FB18B106EB440301342F
:10D12C009D800135142DF3D13046346002B070BDB2
:10D13C002DE9F04303888488103B8DB00A2B1ED850
:10D14C00DFE803F006361D1D1D1D1D1D1D5B3D007A
:10D15C002E4FBB68DB43009379686846FDF79FFB55
:10D16C00009901A8FFF7CDFF0DF108080026019BDF
:10D17C009E4207D3132C12D90420FCF76BFF0DB081
:10D18C00BDE8F08338F8029B00250135494607EBD2
:10D19C008500FDF74EFB1E2DF7D10136E7E7214642
:10D1AC001B48FDF73DFB1B482146FDF739FBE6E725
:10D1BC00174821460DB0BDE8F043FDF73ABB027AA3
:10D1CC0015483F2A4FEA1215214694BF002201222E
:10D1DC00FFF792FF022D94BF002201220F48214637
:10D1EC00FFF78AFF012D0E4894BF00220122214631
:10D1FC000DB0BDE8F043FFF77FBF037A002BBED123
:10D20C00427A0548C2F3C0022146F1E7B823002058
:10D21C00C0230020BC230020D0230020CC230020DE
:10D22C00C8230020AADF7047002301380B700428A4
:10D23C0006D8DFE800F00306080A0C0011230B7077
:10D24C0070472123FBE73123F9E71223F7E7222369
:10D25C00F5E7008800F001007047F0B58B7891B0CD
:10D26C00012B0C4638BF01238DF80E3005460B8878
:10D27C00ADF80C30002116466846032200F036FD4E
:10D28C00607C6946FFF7D0FFA07C0DF10101FFF730
:10D29C00CBFFE27B237B217D43EAC203227C43EA62
:10D2AC0002139DF80220002922F0190203F0190341
:10D2BC0014BF02210121134361F342031C220021FC
:10D2CC0009A88DF8023000F011FD637B13F0300FCC
:10D2DC0015D002AF03220021384600F007FDE07C98
:10D2EC000DF10901FFF7A0FF11238DF808309DF80F
:10D2FC000A300E97012262F342038DF80A30637BE9
:10D30C008DF824301422A37B8DF82530002104A83D
:10D31C0000F0ECFC03AB0493A388ADF81C30A368BD
:10D32C00CDF814D01BB1E288ADF818200893A3698E
:10D33C00002B31D001AF03220021384600F0D6FC7F
:10D34C00A3691A88ADF82C205A88ADF82E205A689B
:10D35C000D97187B0A923946FFF766FFA3690DF10A
:10D36C000501587BFFF760FFA3699A7A197A41EAA5
:10D37C00C201DA7A9B7B41EA02119DF80620002B50
:10D38C0001F0190122F0190214BF022301231143E9
:10D39C0063F342018DF80610E36903B10C93334635
:10D3AC0004AA09A92846FFF73DFF11B0F0BDA5DF7F
:10D3BC007047B5DF704750B14FF0171303601B2354
:10D3CC0003711723C160C3808360002070470E2057
:10D3DC007047000013B5034680880C4690B91A8834
:10D3EC003A2A67D010D8102A3DD0112A5ED0A37AE1
:10D3FC0043B1E1880020FFF7DAFF002875D14FF424
:10D40C008073638102B010BD552AF0D1DB88C988C6
:10D41C00A072172B38BF17238B4228BF0B462381D2
:10D42C00FFF7C7FF60B1FDF7C5FD394B394902461F
:10D43C0039481B1ADB081B0443F00100FCF70AFBFC
:10D44C00E27A002AD3D1E368002BD0D040F67721C2
:10D45C00ADF802202289ADF80010ADF80420694621
:10D46C0020469847C3E7DB7B012B04BF0B88CB809E
:10D47C00C98823898B42BAD20020FFF798FF10B9D4
:10D48C000123E372B3E7112802D10123A372AEE7A3
:10D49C00FDF790FD1E4B214902461F481B1ADB0865
:10D4AC001B0443F00100FCF7D5FAA0E71723CB804F
:10D4BC008B609CE75B89CA88934228BF1346172B65
:10D4CC00CA6838BF17230B8162B1C97A51B140F6D3
:10D4DC007721ADF80010ADF80200ADF804306946C4
:10D4EC00204690470023638181E711288AD0FDF7FD
:10D4FC0061FD074B0949024607481B1ADB081B0450
:10D50C0043F0010002B0BDE81040FCF7A3BA00BF25
:10D51C006CDE0100FAE6010024DE0100C9E6010020
:10D52C00B0DF704766DF704710B5002104464088B5
:10D53C00FFF7F8FF034608B9237210BD112801D17B
:10D54C000123F9E76368BDE81040184760B159B191
:10D55C000378DE2B0AD00B684360DE2303704FF692
:10D56C00FF734380002070470E20704708207047DF
:10D57C0028B10378DE2B04D14180002070470E20A7
:10D58C00704708207047F0B5054685B00C46002959
:10D59C0042D0002840D00B78DE2B3DD182884B88BE
:10D5AC009A4204D10B7A13B10846FFF7BDFF2B88C2
:10D5BC00112B33D0512B0FD0012B2DD12B7A012BCA
:10D5CC002AD1A9886288914226D12046237205B0BF
:10D5DC00BDE8F040FFF7A8BFAE886388B3421BD10B
:10D5EC00AF79022F18D1AD7B2B1F022B14D8002141
:10D5FC001022684600F07AFB052D18BF4FF4C0735B
:10D60C006946304618BFADF804308DF80070FFF74E
:10D61C0087FF08B16368984705B0F0BD6388AA8896
:10D62C009A4204BF4FF6FF736380F5E745DF7047FE
:10D63C00044B187880F001001870034B1B6803B181
:10D64C00184770473824002034240020144B30B481
:10D65C001A60144B4FF400140728C3F880411AD8F1
:10D66C00EC2242FA00F5ED0715D54001C0B283F863
:10D67C00150393F8150340090241D2070BD50A4A4A
:10D68C00906830B113682343136030BC0320FFF75C
:10D69C00CDBF1C60F9E742F2020030BC704700BFFE
:10D6AC003424002000E100E0C4210020A8DF7047F2
:10D6BC00AEDF704762DF70470288502A10B40CD17D
:10D6CC00C4884A88944208D1028A012A05D14B6940
:10D6DC001BB1827C10BC8088184710BC70470000BE
:10D6EC00F0B50B6843618FB0334B02AA044603F1CB
:10D6FC001007164618685968154603C50833BB420F
:10D70C002A46F7D104F112013046FFF7D3FF002867
:10D71C004FD1A37C8DF80630224641F2235301A948
:10D72C000120ADF80430FFF7C1FF002841D10146BC
:10D73C00202206A800F0DAFA41F22453ADF8183092
:10D74C00A37C8DF81A309DF82530224623F0120365
:10D75C0001254FF0011643F0120332F80A0B07961D
:10D76C0006A98DF825308DF829508DF82B50FFF730
:10D77C0074FDF0B90146202206A800F0B7FA41F278
:10D78C002553ADF81830A37C8DF81A309DF8253050
:10D79C000796224623F00A0343F00A0332F8020BE1
:10D7AC008DF8253006A98DF829508DF82A50FFF7F1
:10D7BC0054FD0FB0F0BD00BF36E7010070B588B066
:10D7CC000D468DF807201022044601260DEB0200B1
:10D7DC000021ADF80E6000F089FA6B89ADF81030BD
:10D7EC000DF10703079304A90DF10E0320468DF8E4
:10D7FC0012600693FFF75CFF08B070BD10DF704736
:10D80C0013B5044609496846FDF779FB019808B938
:10D81C0002B010BDD0E900312046984718B16846D7
:10D82C00FDF777FBF2E71120F2E700BF54E70100A8
:10D83C0013B5044607496846FDF761FB019B0BB91C
:10D84C0002B010BD2046D3E9002190476846FDF791
:10D85C0060FBF3E76CE701000B4991F816335A09AA
:10D86C00EC231341DB0706D5084B9A683AB94FF401
:10D87C0080030B60704742F20200FCF7EBBB1A68A6
:10D88C0042F480021A60704700E100E0C4210020DD
:10D89C00F7B5194F3C7864BB184E012520463570FE
:10D8AC00FFF7AEFF112821D02046FFF7C1FF144B24
:10D8BC008DF80340186801900DF10300FCF7B2FDE0
:10D8CC00104901A8FFF79AFF0446B0FA80F040090E
:10D8DC0038709DF80300FCF7C9FD3CB90A4B347055
:10D8EC001C70FFF7B9FF2846FFF7A2FF204603B0D4
:10D8FC00F0BD0824FAE700BF3A24002039240020A8
:10D90C004EE701007DA001003B240020014B18785C
:10D91C00704700BF3A24002007B508496846FDF758
:10D92C00EEFA019B13B903B05DF804FBD3E90020B8
:10D93C0090476846FDF7EDFAF3E700BF60E701009A
:10D94C00FFF7EABF60DF704769DF704761DF704740
:10D95C0030B5134B1B7891B0FBB1124D34240DF143
:10D96C00020103A8ADF80240FFF7F0FF70B9294699
:10D97C0001A8FDF7C4FA029B002BF0D003A8D3E951
:10D98C000021904701A8FDF7C4FAF4E7052804D05C
:10D99C0011B0BDE83040FCF75DBB11B030BD00BF2D
:10D9AC003C240020B0E9010030B5054685B00C469A
:10D9BC00002900F096804C4B0B600C22002101A832
:10D9CC0000F094F901238DF8063022688DF804508C
:10D9DC00062301A92020ADF80830FFF7B5FF60B190
:10D9EC00FDF7E8FA414B4249024642481B1ADB0854
:10D9FC001B0443F00100FCF72DF80C22002101A8B8
:10DA0C0000F074F9012322688DF8053001A940203B
:10DA1C00FFF79AFF60B1FDF7CDFA344B3649024659
:10DA2C0034481B1ADB081B0443F00100FCF712F806
:10DA3C000C22002101A800F059F90A2322688DF864
:10DA4C00043001A90120FFF77FFF60B1FDF7B2FAA6
:10DA5C00264B2A49024627481B1ADB081B0443F0B5
:10DA6C000100FBF7F7FF0C22002101A800F03EF9A2
:10DA7C004FF4B0632268019301A9A120FFF764FF62
:10DA8C0060B1FDF797FA194B1D49024619481B1A4C
:10DA9C00DB081B0443F00100FBF7DCFF0C22002128
:10DAAC0001A800F023F99DF8043022686FF30003FD
:10DABC0001A9A0208DF80430FFF746FF034668B19A
:10DACC00FDF778FA094B0F4902460A481B1ADB0886
:10DADC001B0443F00100FBF7BDFF0023184605B003
:10DAEC0030BD0E23FAE700BFE01A00207CDE0100F7
:10DAFC0078E7010024DE0100BEE701000AE801001E
:10DB0C0056E80100A7E80100F8B506460768FFF7DC
:10DB1C0019FF3368BB4205461DD91948194C1A49DF
:10DB2C00241AE408240444F002042046FBF78EFF78
:10DB3C00336816493A462046FBF795FF4FF0805361
:10DB4C003268D3F80C3112499B0203F100539A1A34
:10DB5C002046FBF77FFF25B90E4B01221A70284691
:10DB6C00F8BD2846FDF726FA064B0B490246044839
:10DB7C001B1ADB081B0443F00100FBF76BFFEEE7FD
:10DB8C0024DE01007CDE0100FAE8010029E9010035
:10DB9C005AE901003C24002084E901004BDF704766
:10DBAC001FB50E4C01A8FFF7F9FF70B9214602A86A
:10DBBC00FDF7A5F9039B002BF4D00198D3E90021C4
:10DBCC00904702A8FDF7A5F9F4E7052804D004B0A6
:10DBDC00BDE81040FCF73EBA04B010BDC8E9010026
:10DBEC007F2805D8034B185C034B5B5C18407047CF
:10DBFC0000207047E0E9010060EA0100A0F1610338
:10DC0C00192B98BF20387047A0F14103192B98BFEE
:10DC1C00203070477F2805D8034B185C034B5B5CA6
:10DC2C001840704700207047E0E9010060EA0100ED
:10DC3C00A0F16103192B98BF20387047A0F1410364
:10DC4C00192B98BF203070477F299ABF0170012093
:10DC5C006FF02E0070475AB10A787F2A0AD800B1AB
:10DC6C000260002119605960501A18BF01207047DA
:10DC7C00002070476FF02E007047000008B5034B72
:10DC8C005B689B681B68984708BD00BF181B002089
:10DC9C0008B50921FFF7F2FF08BD844640EA0103ED
:10DCAC0013F0030F18D18446202A0BD32DE9F0076B
:10DCBC00B1E8F807A0E8F807A2F12002202AF7D271
:10DCCC00BDE8F007042A07D351F8043B40F8043BA5
:10DCDC00A2F10402042AF7D2002A05D011F8013B64
:10DCEC0000F8013B013AF9D1604670478446002A9E
:10DCFC002DD010F0030F04D000F8011B013A26D0F0
:10DD0C00F7E7C9B241EA012141EA0141202A12D3C5
:10DD1C00A2F120022DE9F0030B460C460D460E46EF
:10DD2C000F4688468946A0E8FA03203AFBD2BDE8A4
:10DD3C00F00320320BD0042A05D340F8041B043A1C
:10DD4C0005D0042AF9D200F8011B013AFBD1604638
:10DD5C00704700F1010110F0030F11D010F8012BE6
:10DD6C00002A23D010F0030F0AD010F8012B002A40
:10DD7C001CD010F0030F03D010F8012B002A15D083
:10DD8C002DE970004FF001324FF0803350F8044B06
:10DD9C00A4EB020525EA04051D4000D1F6E7A0F12D
:10DDAC00040070BC10F8012B002AFBD1A0EB010081
:02DDBC007047AE
:08DDC00001B4010000000000A5
:10DDC8003DD1010000000000E1D30100C82200207D
:10DDD800B1CF01000000000093D50100F02200201F
:10DDE800C5D60100D822002081C40100000000002F
:08DDF8009DB4010000000000D1
:10DE00005DD9010000000000ADDB01000000000052
:10DE1000701B0020381C0020401C0020781B0020B4
:04DE200018000000E6
:10DE240092E501000000000098E5010000000000F8
:10DE34009FE5010000000000A3E5010000000000D0
:10DE4400A8E5010000000000FADE01000000030361
:10DE5400D0DF010000000000F9DF01000000000035
:10DE64008CE501000000000029E701000000030325
:10DE740046E7010000000303A1E9010000000303D9
:10DE8400BCE901000000030366E00100000000009B
:08DE94007CE001000000000029
:10DE9C00CCDE010000000000D8DE0100F41A0020E6
:10DEAC00FFFFFFFFFFFFFFFFFFFFFFFFFFFFFFFF76
:10DEBC0000000000000000000000D6010601000078
:10DECC000D95010071950100BD940100756172748E
:10DEDC005F6C6F675F6261636B656E640042616368
:10DEEC006B656E647320666C757368656400617035
:10DEFC0070000000602000207F000000E020002067
:10DF0C001B5B313B33316D0025734C6F67732064A1
:10DF1C00726F70706564202825642925730D0A00C2
:10DF2C001B5B306D002573003C25733E2025733A36
:10DF3C002000202530327800202020007C00256332
:10DF4C00001B5B313B33306D001B5B313B33326D5F
:10DF5C00001B5B313B33336D001B5B313B33346D4A
:10DF6C00001B5B313B33356D001B5B313B33366D36
:10DF7C00001B5B313B33376D007761726E696E67E6
:10DF8C0000696E666F006465627567002CDF0100C6
:10DF9C004DDF01000CDF010055DF01005DDF0100EA
:10DFAC0065DF01006DDF010075DF01007DDF010021
:10DFBC0000000000E6DF010085DF01008DDF0100BD
:10DFCC0092DF01006170705F627574746F6E000097
:10DFDC0000210020466174616C206572726F7200C2
:10DFEC0053797374656D207265736574006170701C
:10DFFC005F74696D6572000001000600000000008E
:10E00C003C210020E9A0010052544320696E737436
:10E01C00616E636520616C726561647920696E69FB
:10E02C007469616C697A65642E005254433A2069B4
:10E03C006E697469616C697A65642E000000000079
:10E04C00000000000338FDD87047303132333435CE
:10E05C00363738394142434445467077725F6D67B5
:10E06C006D740000C8DD0100C8DD01000400000073
:10E07C00736F72746C697374004E52465F535543E0
:10E08C0043455353004E52465F4552524F525F53D5
:10E09C0056435F48414E444C45525F4D495353499A
:10E0AC004E47004E52465F4552524F525F534F46B9
:10E0BC00544445564943455F4E4F545F454E41428B
:10E0CC004C4544004E52465F4552524F525F494EAA
:10E0DC005445524E414C004E52465F4552524F529F
:10E0EC005F4E4F5F4D454D004E52465F4552524F6D
:10E0FC00525F4E4F545F464F554E44004E52465F52
:10E10C004552524F525F4E4F545F535550504F52E1
:10E11C00544544004E52465F4552524F525F494E51
:10E12C0056414C49445F504152414D004E52465F5E
:10E13C004552524F525F494E56414C49445F5354DD
:10E14C00415445004E52465F4552524F525F494E24
:10E15C0056414C49445F4C454E475448004E52463C
:10E16C005F4552524F525F494E56414C49445F46AF
:10E17C004C414753004E52465F4552524F525F49F5
:10E18C004E56414C49445F44415441004E52465F07
:10E19C004552524F525F444154415F53495A4500D6
:10E1AC004E52465F4552524F525F54494D454F5562
:10E1BC0054004E52465F4552524F525F4E554C4C96
:10E1CC00004E52465F4552524F525F464F524249A3
:10E1DC004444454E004E52465F4552524F525F49A1
:10E1EC004E56414C49445F41444452004E52465FA6
:10E1FC004552524F525F42555359004E52465F455D
:10E20C0052524F525F434F4E4E5F434F554E540048
:10E21C004E52465F4552524F525F5245534F5552E4
:10E22C00434553004E52465F4552524F525F4D4F3D
:10E23C0044554C455F4E4F545F494E495449414CEF
:10E24C00495A4544004E52465F4552524F525F4D1B
:10E25C00555445585F494E49545F4641494C4544D5
:10E26C00004E52465F4552524F525F4D55544558E1
:10E27C005F4C4F434B5F4641494C4544004E524620
:10E28C005F4552524F525F4D555445585F554E4C59
:10E29C004F434B5F4641494C4544004E52465F4507
:10E2AC0052524F525F4D555445585F434F4E445F49
:10E2BC00494E49545F4641494C4544004E52465FD5
:10E2CC004552524F525F4D4F44554C455F414C5255
:10E2DC00454144595F494E495449414C495A45447A
:10E2EC00004E52465F4552524F525F53544F52416B
:10E2FC0047455F46554C4C004E52465F4552524F77
:10E30C00525F4150495F4E4F545F494D504C454D03
:10E31C00454E544544004E52465F4552524F525F53
:10E32C00464541545552455F4E4F545F454E414210
:10E33C004C4544004E52465F4552524F525F494F36
:10E34C005F50454E44494E47004E52465F4552522F
:10E35C004F525F4452565F5457495F4552525F4F7C
:10E36C0056455252554E004E52465F4552524F52F0
:10E37C005F4452565F5457495F4552525F414E417C
:10E38C00434B004E52465F4552524F525F445256D9
:10E39C005F5457495F4552525F444E41434B004EC8
:10E3AC0052465F4552524F525F424C455F49505363
:10E3BC00505F52585F504B545F5452554E4341542A
:10E3CC004544004E52465F4552524F525F424C45B7
:10E3DC005F495053505F4348414E4E454C5F414C52
:10E3EC0052454144595F455849535453004E524687
:10E3FC005F4552524F525F424C455F495053505FFC
:10E40C004C494E4B5F444953434F4E4E4543544544
:10E41C0044004E52465F4552524F525F424C455F4C
:10E42C00495053505F504545525F52454A454354FD
:10E43C00454400556E6B6E6F776E206572726F720D
:10E44C0020636F64650000000000000085E001009F
:10E45C000100000091E0010002000000AFE00100AB
:10E46C0003000000D0E0010004000000E3E0010024
:10E47C0005000000F4E001000600000008E10100C6
:10E48C000700000020E101000800000038E1010055
:10E49C000900000050E101000A00000069E10100E0
:10E4AC000B00000081E101000C00000098E101006C
:10E4BC000D000000ACE101000E000000BEE1010007
:10E4CC000F000000CDE1010010000000E1E10100AF
:10E4DC0011000000F8E101001200000007E2010049
:10E4EC00130000001CE201008000000030E201007B
:10E4FC008100000051E20100820000006DE2010089
:10E50C008300000089E2010084000000A7E2010002
:10E51C0085000000C8E2010086000000EDE2010069
:10E52C009000000004E301009100000022E30100D0
:10E53C009200000040E301000082000055E301005E
:10E54C000182000073E30100028200008FE30100EE
:10E55C0000840000ABE3010001840000CFE3010064
:10E56C0002840000F9E30100038400001EE40100B2
:10E57C000000010100000001010000001112131441
:10E58C00636C6F636B00434C4F434B004750494FD8
:10E59C005445005052530055415254005541525469
:10E5AC004500436F6E6E6563746564004469736304
:10E5BC006F6E6E65637465640053656E642062757E
:10E5CC0074746F6E207374617465206368616E6718
:10E5DC00652E005265636569766564204C45442060
:10E5EC004F4E21005265636569766564204C454445
:10E5FC00204F464621004E6F726469635F426C691E
:10E60C006E6B7900426C696E6B79206578616D7008
:10E61C006C6520737461727465642E00656E636F33
:10E62C006465206164762064617461206661696C44
:10E63C0065640043616E277420636F6E666967754D
:10E64C007265206164766572746973696E672064A3
:10E65C006174610073657420706172616D617465C1
:10E66C007273206661696C65640053746F702070FE
:10E67C007269762061647600696E697420616476D3
:10E68C00206661696C65643A25640043616E277489
:10E69C002073746172742061647665727469736935
:10E6AC006E673A2564007374617274206164762C11
:10E6BC0020696E74657276616C3A25640073645FD0
:10E6CC00626C655F67617474635F65786368616EC3
:10E6DC0067655F6D74755F726571756573742829F4
:10E6EC002072657475726E65642025732E007364D8
:10E6FC005F626C655F67617474735F657863686192
:10E70C006E67655F6D74755F7265706C7928292012
:10E71C0072657475726E65642025732E006E726658
:10E72C005F626C655F676174740023D1BCEA5F78CB
:10E73C002315DEEF1212000000006E72665F736428
:10E74C006800010000070000F8DD0100F8DD0100A1
:10E75C000800000000DE010010DE010008000000CF
:10E76C00F8DD010000DE01000800000073645F6248
:10E77C006C655F6366675F736574282920726574C6
:10E78C0075726E6564202573207768656E206174E0
:10E79C0074656D7074696E6720746F207365742076
:10E7AC00424C455F434F4E4E5F4346475F47415097
:10E7BC002E0073645F626C655F6366675F7365747C
:10E7CC0028292072657475726E6564202573207714
:10E7DC0068656E20617474656D7074696E67207401
:10E7EC006F2073657420424C455F4741505F434630
:10E7FC00475F524F4C455F434F554E542E00736448
:10E80C005F626C655F6366675F736574282920724D
:10E81C00657475726E6564202573207768656E204B
:10E82C00617474656D7074696E6720746F207365A4
:10E83C007420424C455F434F4D4D4F4E5F4346470E
:10E84C005F56535F555549442E0073645F626C6587
:10E85C005F6366675F7365742829207265747572CF
:10E86C006E6564202573207768656E20617474650D
:10E87C006D7074696E6720746F2073657420424CE0
:10E88C00455F47415454535F4346475F415454528C
:10E89C005F5441425F53495A452E0073645F626C6A
:10E8AC00655F6366675F736574282920726574758C
:10E8BC00726E6564202573207768656E20617474B0
:10E8CC00656D7074696E6720746F20736574204277
:10E8DC004C455F47415454535F4346475F53455241
:10E8EC00564943455F4348414E4745442E00496EC7
:10E8FC0073756666696369656E742052414D20615B
:10E90C006C6C6F636174656420666F7220746865EB
:10E91C0020536F66744465766963652E00436861A5
:10E92C006E6765207468652052414D207374617266
:10E93C0074206C6F636174696F6E2066726F6D20EA
:10E94C003078257820746F20307825782E004D6132
:10E95C0078696D756D2052414D2073697A6520661A
:10E96C006F72206170706C69636174696F6E20697D
:10E97C007320307825782E0073645F626C655F6558
:10E98C006E61626C6528292072657475726E65649F
:10E99C002025732E006E72665F7364685F626C650F
:10E9AC0000000000C8DD0100F8DD010008000000D7
:10E9BC006E72665F7364685F736F6300C0DD010025
:10E9CC00C8DD01000800000043000000504F53490F
:10E9DC0058000000202020202020202020682828FB
:10E9EC00282820202020202020202020202020200B
:10E9FC002020202048101010101010101010101093
:10EA0C001010101084848484848484848484101072
:10EA1C00101010101081818181818101010101018F
:10EA2C0001010101010101010101010101010110BB
:10EA3C001010101010828282828282020202020264
:10EA4C00020202020202020202020202020202108C
:10EA5C001010102000070320041702010857104063
:10EA6C0080000000D4E90100D8EA0100ECEB0100C1
:10EA7C0053756E004D6F6E005475650057656400DC
:10EA8C005468750046726900536174000000000000
:10EA9C004A616E00466562004D6172004170720001
:10EAAC004D6179004A756E004A756C0041756700BE
:10EABC00536570004F6374004E6F760044656300BD
